:020000040800F2
:10000000F8060020FD040008FD020008FF020008B9
:1000100003030008070300080B03000800000000AA
:100020000000000000000000000000000F030008B6
:100030001103000800000000130300081503000866
:100040001705000817050008170500081705000820
:100050001705000817050008170500081705000810
:100060001705000817050008170500081705000800
:1000700017050008170500081705000817050008F0
:1000800017050008170500081705000817050008E0
:1000900017050008170500081705000817050008D0
:1000A00017050008170500081705000817050008C0
:1000B00017050008C12400081705000817050008E7
:1000C00017050008170500081705000817050008A0
:1000D00017050008B32000085D5F00081705000839
:1000E0001705000817050008170500081705000880
:1000F0001705000817050008170500081705000870
:10010000170500081705000817050008170500085F
:10011000170500081705000817050008170500084F
:10012000170500081705000817050008170500083F
:10013000DFF80CD006F01AFE004800474501000821
:10014000F806002000F004F801E000F061F8FCE798
:1001500010B501F0E5FE00F021F84FF4E13001F0B8
:1001600059FF05F0A9FE02F0D8F802F0BDF801F041
:10017000E5FF02F0DDF902F022FE02F00CFE10BDF8
:10018000A1F10A03834201D2184606E002F10A03F4
:10019000984201D2184600E000BF7047002049494C
:1001A000087048708870C870087148718871C8718B
:1001B000704701207047022070472DE9F04786B054
:1001C0004FF0050A02F049FE3F48006806F0D9FBEF
:1001D00004460D463D48006806F0D3FB06460F4630
:1001E0003B48006806F0CDFB804642460B4639A0EE
:1001F000CDE9035ACDE90067029406F02BFE06B064
:10020000BDE8F0870A2070471420704732207047FD
:1002100010B52C480078012831D1FFF7CAFF2948D2
:100220008078022804DB002026498870FFF7C3FF8E
:100230002448C078052804DB00202249C870FFF755
:10024000BCFF204800790A2804DB00201D49087102
:10025000FFF7D8FF1B484079142804DB0020194918
:100260004871FFF7D1FF17488079322804DB00205E
:1002700014498871FFF7CAFF00201249087010BDA9
:1002800010488078401C0F4988700846C078401C90
:10029000C87008460079401C087108464079401C27
:1002A000487108468079401C88710846007801280A
:1002B00003D10846C079401CC8710120014908706B
:1002C0007047000000000020540000205000002073
:1002D0004C0000205961773D252E3266205069740C
:1002E00063683D252E326620526F6C6C3D252E32A0
:1002F0006620543D25640D0A00000000704700BFD1
:10030000FEE700BFFEE700BFFEE700BFFEE7704765
:100310007047704710B5FFF7B3FF10BD0CB5002054
:10032000019000906C48006840F480306A49086091
:1003300000BF6948006800F4003000900198401C3C
:100340000190009818B90198B0F5A06FF1D16248FA
:10035000006800F4003010B10120009001E000209E
:1003600000900098012843D15C48006840F01000DC
:100370005A4908600846006820F0030008600846F3
:10038000006840F0020008605348406852494860E5
:100390000846406848600846406840F4806048600D
:1003A0000846406820F47C1048600846406840F4E5
:1003B000E81048600846006840F08070086000BFA0
:1003C0004548006800F000700028F9D042484068B5
:1003D00020F00300404948600846406840F00200B1
:1003E000486000BF3C48406800F00C000828F9D184
:1003F0000CBD10B5FFF792FF10BD10B53648006870
:1004000040F001003449086008464068344908401B
:100410003149486008460068324908402E49086062
:100420000846006820F4802008600846406820F4F0
:10043000FE0048604FF41F008860FFF7DAFF4FF0BE
:1004400000602949086010BD10B50021002000227D
:10045000214B5B6803F00C0121B1042906D0082967
:1004600028D107E0214B224C236027E01F4B204C72
:10047000236023E0184B5B6803F47010164B5B6835
:1004800003F48032022303EB904022B9194B43431B
:10049000174C23600DE0104B5B6803F4003323B16D
:1004A000144B4343124C236003E0104B4343104C66
:1004B000236003E00D4B0E4C236000BF00BF064BD2
:1004C0005B68C3F303130C4CE15C094B1B68CB4026
:1004D000074C236010BD00000010024000200240C5
:1004E0000000FFF8FFFFF6FE08ED00E000127A00C2
:1004F0000800002000093D000C000020064880474D
:1005000006480047FEE7FEE7FEE7FEE7FEE7FEE7F8
:10051000FEE7FEE7FEE7FEE7FB0300083101000807
:1005200031490143314A1160704770B50021002301
:100530000F22C47804B32D4C246804F4E064C4F59D
:10054000E064210AC1F10403CA40447804FA03F1CB
:100550008478144021430901254C0678A15504787C
:1005600004F01F050124AC4005786D11AD0005F1C4
:10057000E025C5F8004109E0047804F01F050124D6
:10058000AC401C4D0678761145F8264070BD1A4ADD
:100590000A400243154B1B1F1A60704739B1134ABA
:1005A000121D12680243114B1B1D1A6006E00F4A10
:1005B000121D126882430D4B1B1D1A6070470428E0
:1005C00008D14FF0E021096941F004014FF0E02229
:1005D000116107E04FF0E021096921F004014FF0BB
:1005E000E0221161704700000000FA050CED00E008
:1005F00000E400E080E100E080FFFF1F10B504464A
:10060000CC48844208D10121042000F02DFB0021B8
:10061000042000F029FB46E0C748844208D10121AC
:10062000082000F021FB0021082000F01DFB3AE02B
:10063000C248844208D10121102000F015FB00219E
:10064000102000F011FB2EE0BD48844208D10121AA
:10065000202000F009FB0021202000F005FB22E013
:10066000B848844208D10121402000F0FDFA002161
:10067000402000F0F9FA16E0B348844208D1012185
:10068000802000F0F1FA0021802000F0EDFA0AE06D
:10069000AE48844207D10121801500F0E5FA00211F
:1006A000A01500F0E1FA10BD10B50121084600F0D8
:1006B000DBFA0021012000F0D7FA10BD2DE9F0414E
:1006C000024600250026002000230024002791F880
:1006D00003C00CF00F0591F803C00CF0100CBCF136
:1006E000000F03D091F802C04CEA050591F800C054
:1006F000BCF1000F31D0146800202BE04FF0010C4A
:100700000CFA00F3B1F800C00CEA03069E4220D1B7
:1007100083004FF00F0C0CFA03F7BC4305FA03FCFF
:100720004CEA040491F803C0BCF1280F06D14FF045
:10073000010C0CFA00FCC2F814C00AE091F803C0E6
:10074000BCF1480F05D14FF0010C0CFA00FCC2F8C7
:1007500010C0401C0828D1D31460B1F800C0BCF10F
:10076000FF0F34DD546800202EE000F1080C4FF03C
:10077000010808FA0CF3B1F800C00CEA03069E4227
:1007800021D183004FF00F0C0CFA03F7BC4305FA9C
:1007900003FC4CEA040491F803C0BCF1280F05D116
:1007A00000F1080C08FA0CF8C2F8148091F803C0A4
:1007B000BCF1480F07D100F1080C4FF0010808FA0E
:1007C0000CF8C2F81080401C0828CED35460BDE855
:1007D000F0814FF6FF710180022181700421C17008
:1007E00070470246002093680B400BB1012000E0E7
:1007F000002070470146886880B27047024600209A
:10080000D3680B400BB1012000E000207047014687
:10081000C86880B2704701617047416170470AB192
:10082000016100E041617047C16070474FF4803260
:100830000A438261816182618269826970470246EE
:100840000020434B18684FF68073184040EA0210AE
:1008500008433F4B186070473E49C8617047F0B588
:100860000A46002300240021002500F00046B6F1CE
:10087000004F02D1364EF16901E0354E7168C0F388
:10088000034583B200F44016B6F5401F08D121F0AD
:1008900070612F4E766826F070662D4F7E6012E0F4
:1008A00000F48016B6F5801F06D1032606FA05F47B
:1008B000A14341F0706106E0460D360103FA06F6E9
:1008C000B14341F0706122B1460D360103FA06F6DC
:1008D000314300F00046B6F1004F02D11C4EF161E9
:1008E00001E01B4E7160F0BD30B500228B071C0F7C
:1008F0000F2303FA04F2164B08338C1053F82430FC
:100900009343134C08348D1044F8253023468C1043
:1009100053F824308C07240F00FA04F423430C4CC2
:1009200008348D1044F8253030BD0A49DC310860A8
:100930007047000000080140000C01400010014019
:100940000014014000180140001C0140002001403B
:100950000000014000002042DF48006840F0010034
:10096000DD49086008464068DC490840DA494860CB
:1009700008460068DA490840D74908600846006818
:1009800020F4802008600846406820F4FE0048609B
:100990004FF41F0088607047CF49096821F4803107
:1009A000CD4A11601146096821F480211160B0F52B
:1009B000803F03D0B0F5802F0ED106E0C64909680C
:1009C00041F48031C44A116007E0C349096841F429
:1009D000A021C14A116000E000BF00BF704710B500
:1009E00001460022002300204A11012A02D1BA4CFC
:1009F000236806E0022A02D1B74C236A01E0B64C14
:100A0000636A01F01F02012494401C400CB10120D4
:100A100000E0002010BD38B5002000900024002523
:100A200000BF3120FFF7DBFF05460098401C009017
:100A30000098B0F5A06F01D0002DF2D03120FFF763
:100A4000CEFF08B1012400E00024204638BD014655
:100A50000020A14A106820F0F80040EAC1001060B0
:100A60007047A04908607047024600209A4B5868BA
:100A700020F47C1042EA01031843974B58607047FA
:100A800098490866704701460020934A506820F054
:100A900003000843506070478F48406800F00C0026
:100AA0007047014600208C4A506820F0F00008434F
:100AB0005060704701460020874A506820F4E0608B
:100AC00008435060704701460020834A506820F474
:100AD000605040EAC1005060704729B17E4A527AA6
:100AE00002437D4B5A7204E07B4A527A82437A4B2E
:100AF0005A7270477B49D831086070470146002020
:100B0000754A506820F44040084350607047002107
:100B1000714A20321170704A82F82010012802D0E8
:100B200004280AD104E001216B4A2032117005E04B
:100B30000521694A2032117000E000BF00BF7047F4
:100B40006949086070476449096A0143624A116251
:100B50007047654944390860704730B5002100226C
:100B6000002400235C4D6D6805F00C0121B10429BF
:100B700005D0082923D105E05C4D056022E05B4DDE
:100B800005601FE0544D6D6805F47012524D6D689C
:100B900005F48034022505EB92421CB9544D5543AF
:100BA00005600BE04C4D6D6805F400351DB1504DEE
:100BB0005543056002E04D4D5543056002E04B4D45
:100BC000056000BF00BF444D6D6805F0F0010909E4
:100BD000484D6B5C0568DD4045603F4D6D6805F430
:100BE000E061090A434D6B5C4568DD4085603A4D24
:100BF0006D6805F46051C90A3E4D6B5C4568DD4087
:100C0000C560354D6D6805F44041890B3A4D6B5C0C
:100C1000C568B5FBF3F5056130BD29B12E4A5269AF
:100C200002432D4B5A6104E02B4A526982432A4BFE
:100C30005A61704729B1284A92690243264B9A614A
:100C400004E0254A92698243234B9A61704729B197
:100C5000214AD2690243204BDA6104E01E4AD2697C
:100C600082431D4BDA61704729B11B4AD2680243A7
:100C7000194BDA6004E0184AD2688243164BDA60F6
:100C8000704729B1144A12690243134B1A6104E0F8
:100C9000114A12698243104B1A6170471249403958
:100CA000086070470F49C86470470B49C8717047A6
:100CB0000948406A40F08070074948627047014621
:100CC0000020054A92680A400AB1012000E0002095
:100CD0007047014988727047001002400000FFF819
:100CE000FFFFF6FE000042428004424200127A00FA
:100CF00000093D001C0000202C00002010B5044617
:100D0000FB48844209D101218803FFF7ADFF002190
:100D10004FF48040FFF7A8FF32E0F648844209D143
:100D200001214804FFF7ADFF00214FF40030FFF729
:100D3000A8FF25E0F048844209D101218804FFF78B
:100D4000A0FF00214FF48020FFF79BFF18E0EB4845
:100D5000844209D10121C804FFF793FF00214FF419
:100D60000020FFF78EFF0BE0E548844208D1012107
:100D70000805FFF786FF00214FF48010FFF781FF81
:100D800010BD2DE9F04786B005460E460024A24668
:100D900000BFA1460027B08900B100BF2F462C8AB2
:100DA0004CF6FF700440F08804432C82AC894EF668
:100DB000F3100440B0883189084371890843044323
:100DC000AC81AC8A4FF6FF400440B0890443AC824A
:100DD00001A8FFF7C2FEC648874202D1DDF810A085
:100DE00001E0DDF80CA0A88900F4004040B10AEB56
:100DF000CA0000EB0A1031684900B0FBF1F807E0C7
:100E00000AEBCA0000EB0A1031688900B0FBF1F868
:100E10006420B8FBF0F004012009642101FB108973
:100E2000A88900F4004040B1322000EBC900B0FBBB
:100E3000F1F000F00700044308E0322000EB091055
:100E40006421B0FBF1F000F00F0004432C8106B0E8
:100E5000BDE8F0874FF41651016000218180C18008
:100E600001810C21418100218181704710B502462A
:100E70000020108A4FF2FF0318400B884C88234350
:100E80008C882343CC8823431843108210BD002153
:100E9000018041808180C180704721B1828942F404
:100EA0000052828104E082894DF6FF731A408281EC
:100EB0007047F0B50346002400260025002040F6C8
:100EC0006A17B94200D100BF1846C1F3421401F0BD
:100ED0001F06012707FA06F5012C01D10C3004E0AA
:100EE000022C01D1103000E014301AB107682F43F2
:100EF000076002E00768AF430760F0BD1AB1838A5C
:100F00000B43838202E0838A8B4383827047028A89
:100F10004FF6F0731A400282028A0A430282704737
:100F200082894FF2FF731A40828182890A4382814B
:100F3000704721B1828942F00202828104E08289F5
:100F40004FF6FD731A4082817047028A4FF6DF73B5
:100F50001A400282028A0A430282704721B1028A41
:100F600042F48042028204E0028A4BF6FF731A4088
:100F700002827047C1F30802828070470146888868
:100F8000C0F308007047818941F0010181817047F9
:100F9000028BD2B20283028B42EA012202837047A3
:100FA000028B02F47F420283028B0A430283704762
:100FB00021B1828A42F02002828204E0828A4FF6C6
:100FC000DF731A408282704721B1828A42F0100298
:100FD000828204E0828A4FF6EF731A408282704761
:100FE00021B1828A42F00802828204E0828A4FF6AE
:100FF000F7731A408282704721B1828942F400421D
:10100000828103E08289C2F30E028281704721B19E
:10101000828A42F40062828204E0828A4FF2FF7385
:101020001A4082827047828A4FF6FB731A4082828E
:10103000828A0A438282704721B1828A42F0020288
:10104000828204E0828A4FF6FD731A4082827047E2
:1010500002460020B1F5007F00D100BF13880B408D
:101060000BB1012000E00020704701F40072B2F5DE
:10107000007F00D100BFCA430280704770B50246AE
:10108000002400230025002040F66A16B14200D15A
:1010900000BFC1F3421501F01F03012606FA03F356
:1010A000012D02D19689334006E0022D02D1168A25
:1010B000334001E0968A33400C12012606FA04F40C
:1010C0001688344013B10CB1012000E0002070BD3F
:1010D00010B50022002340F66A14A14200D100BFDF
:1010E0000A1201249440A3B2DC43048010BD000026
:1010F000003801400044004000480040004C0040DF
:101100000050004010B50446FE48844208D1012139
:10111000C014FFF7A9FD0021E014FFF7A5FDC4E00E
:10112000B4F1804F08D101210846FFF7AAFD002144
:101130000120FFF7A6FDB8E0F348844208D1012161
:101140000220FFF79EFD00210220FFF79AFDACE090
:10115000EE48844208D101210420FFF792FD0021CE
:101160000420FFF78EFDA0E0E948844208D1012168
:101170000820FFF786FD00210820FFF782FD94E09C
:10118000E448844208D101211020FFF77AFD0021B4
:101190001020FFF776FD88E0DF48844208D1012166
:1011A0002020FFF76EFD00212020FFF76AFD7CE084
:1011B000DA48844208D101214014FFF755FD00218F
:1011C0006014FFF751FD70E0D548844209D1012138
:1011D000C804FFF749FD00214FF40020FFF744FD4C
:1011E00063E0D048844209D101210805FFF73CFDA6
:1011F00000214FF48010FFF737FD56E0CA488442C3
:1012000009D101214805FFF72FFD00214FF40010FF
:10121000FFF72AFD49E0C548844208D1012140205A
:10122000FFF72FFD00214020FFF72BFD3DE0C048D8
:10123000844208D101218020FFF723FD0021802076
:10124000FFF71FFD31E0BB48844208D10121801522
:10125000FFF717FD0021A015FFF713FD25E0B648A5
:10126000844209D101210804FFF7FEFC00214FF45C
:101270008030FFF7F9FC18E0B048844209D1012121
:101280004804FFF7F1FC00214FF40030FFF7ECFCBD
:101290000BE0AB48844208D101218804FFF7E4FC4D
:1012A00000214FF48020FFF7DFFC10BD00220288F0
:1012B000944B98420ED0994B98420BD0B0F1804F8E
:1012C00008D0914B984205D0904B984202D0904B59
:1012D000984204D14FF68F731A404B881A438D4BB6
:1012E000984207D08C4B984204D04FF6FF431A40E7
:1012F000CB881A4302808B8883850B880385814BBA
:1013000098420BD0854B984208D08B4B984205D021
:101310008A4B984202D08A4B984201D10B7A0386BD
:1013200001238382704770B5002400220023058CBE
:101330004FF6FE7635400584028C8388048B4FF689
:101340008F752C40B51E2C400D882C43751E2A40ED
:101350000D892A434D882A436A4DA8420BD06F4D10
:10136000A84208D0744DA84205D0744DA84202D0BE
:10137000734DA84213D14FF6F7752A404D892A4381
:101380004FF6FB752A408D882A434FF6FF652B40A8
:101390004FF6FF552B408D892B43CD892B438380FE
:1013A0000483CD888586028470BD70B50024002238
:1013B0000023058C4FF6EF7635400584028C838838
:1013C000048B48F6FF752C404FF6FF452C400D88E6
:1013D0004FF6FF7606EA05252C434FF6DF752A40C7
:1013E0000D8906EA05152A434D8806EA05152A43A4
:1013F000444DA84202D0494DA8421DD14FF67F75F9
:101400002A404D894FF6FF7606EA05152A434FF626
:10141000BF752A408D8806EA05152A434FF6FF3529
:101420002B404FF2FF752B408D8906EA85052B4333
:10143000CD8906EA85052B4383800483CD88058703
:10144000028470BD70B5002400220023058C4FF685
:10145000FF6635400584028C8388848B4FF68F7538
:101460002C404FF6FC752C400D882C434FF6FF5551
:101470002A400D894FF6FF7606EA05252A434D8856
:1014800006EA05252A431F4DA84202D0234DA84253
:101490001DD14FF2FF752A404D894FF6FF7606EABF
:1014A00005252A434FF6FF352A408D8806EA052593
:1014B0002A434EF6FF752B404DF6FF752B408D8964
:1014C00006EA05152B43CD8906EA05152B438380D3
:1014D0008483CD888587028470BD70B50022002387
:1014E0000024058C4EF6FF7635400584038C8488F5
:1014F000828B48F6FF752A404FF6FF452A400D883B
:1015000020E00000002C01400004004000080040E2
:10151000000C004000100040001400400034014066
:10152000004C0140005001400054014000180040B0
:10153000001C0040002000400040014000440140E9
:10154000004801404FF6FF7606EA05252A434DF68E
:10155000FF752B400D8906EA05352B434D8806EAB9
:1015600005352B43FA4DA84202D0FA4DA84208D1C6
:101570004BF6FF752C408D894FF6FF7606EA8515F0
:101580002C4384808283CD88A0F84050038470BDB2
:10159000828B4FF2FF331A408283828B4FF6FF73A8
:1015A00003EA01231A4382837047F0B50C461546BF
:1015B000002200210026078C4EF6FF7C07EA0C076C
:1015C0000784828B018C4FF6FF7707EA043640F6DA
:1015D000FF473A404FF6FF7707EA05273A434FF6B1
:1015E000FF7707EA03373A43D94FB8420ED0D94FB5
:1015F000B8420BD0B0F1804F08D0D74FB84205D0D9
:10160000D64FB84202D0D64FB84206D14DF6FF773A
:10161000394046F48057394305E047F6FF573940D3
:1016200044F48057394382830184F0BD828B4FF6A6
:10163000F3731A408283828B0A4382837047F0B52A
:101640000C461546002200210026078C4FF6FF6C41
:1016500007EA0C070784828B018C4FF6FF7707EAB5
:1016600004264FF60C773A404FF6FF7707EA031748
:101670002F433A43B64FB8420ED0B64FB8420BD0C4
:10168000B0F1804F08D0B44FB84205D0B34FB84244
:1016900002D0B34FB84206D14FF6FF57394046F457
:1016A0008077394305E04FF2FF57394044F48077A3
:1016B000394382830184F0BD028B4FF2FF331A401D
:1016C0000283028B4FF6FF7303EA01231A4302835E
:1016D0007047F0B50C461546002200210026078C05
:1016E0004FF6EF7C07EA0C070784028B018C4FF65C
:1016F000FF7707EA041640F6FF473A404FF6FF77B8
:1017000007EA03373A434FF6FF7707EA05273A43DC
:101710008F4FB8420ED08F4FB8420BD0B0F1804FF0
:1017200008D08D4FB84205D08C4FB84202D08C4FB4
:10173000B84206D14FF6DF77394046F010073943FB
:1017400005E04FF65F77394044F0100739430283D4
:101750000184F0BD028B4FF6F3731A400283028BB3
:101760000A4302837047F0B50C461546002200215B
:10177000068C4FF6FE773E400684028B018C4FF6B6
:101780000C7632407E1C06EA03162E433243704E1E
:10179000B0420ED06F4EB0420BD0B0F1804F08D0A7
:1017A0006D4EB04205D06D4EB04202D06C4EB0428C
:1017B00006D14FF6FD76314044F00106314305E095
:1017C0004FF6F576314044F001063143028301843F
:1017D000F0BD70B505460C465D4885420ED05D48AB
:1017E00085420BD0B5F1804F08D05B48854205D0CB
:1017F0005A48854202D05A48854200D100E000BFD5
:10180000208850B92389A28861882846FFF7ABFF5A
:10181000E1882846FFF79EFF25E0208804280AD1AA
:101820002389A28861882846FFF753FFE18828466C
:10183000FFF742FF17E0208808280AD12389A288F1
:1018400061882846FFF7FBFEE1882846FFF7EEFE99
:1018500009E02389A28861882846FFF7A6FEE1886F
:101860002846FFF795FE70BD2DE9F04105460C4670
:1018700000260127608808B9022600E00026A0881B
:10188000012801D1022700E001272088A0B923897F
:10189000A28861882846FFF766FFE1882846FFF79F
:1018A00059FF23893A4631462846FFF712FFE1885F
:1018B0002846FFF701FF13E02389A28861882846A4
:1018C000FFF707FFE1882846FFF7F6FE23893A462F
:1018D00031462846FFF747FFE1882846FFF73AFFE1
:1018E000BDE8F0810A884B881A438B881A43CB885D
:1018F0001A430B891A434B891A438B891A43A0F860
:10190000442070474FF6FF71818000210180C18023
:101910004180017270470021018041808180C18037
:10192000018141818181C181704700210180418015
:10193000012181800021C180018170470021018047
:1019400041808180C1800181418181817047000097
:10195000002C014000340140000400400008004019
:10196000000C004021B1028842F00102028004E034
:1019700002884FF6FE731A400280704731B1B0F80A
:10198000442042F40042A0F8442005E0B0F844208E
:10199000C2F30E02A0F8442070471AB183890B43AA
:1019A000838102E083898B43838170478182704702
:1019B00041EA0203A0F8483070471AB183890B430B
:1019C000838102E083898B438381704701894FF6CD
:1019D000F8721140018170470A46002101894FF6D3
:1019E0008F73194011430181704730B504460D468D
:1019F00029462046FFF7F0FF208940F007002081AC
:101A000030BD2DE9F04104460D4616461F46602DB7
:101A100006D13B46012231462046FFF75AFE05E03B
:101A20003B46012231462046FFF79DFE29462046CF
:101A3000FFF7D2FF208940F007002081BDE8F08148
:101A400030B50C4600210189C9B24FF6FF7505EA91
:101A50000325154325432943018130BD2DE9F0417C
:101A600005460E4617469846002443463A463146F8
:101A70002846FFF7E5FF2C894FF6F870044044F044
:101A800007044FF68F70044044F070042C81BDE8C9
:101A9000F081F0B504460D4616461F463B463246D9
:101AA00029462046FFF7CCFF208940F48040208162
:101AB000F0BD0185828270470A46002101884FF6F9
:101AC0008F731940114301807047F0B50C461546DD
:101AD0001E460021002200230189028B038C4FF651
:101AE000F877394021434FF6FC473A4040F201175E
:101AF0003A434FF6DD773B404FF6FF7707EA06178C
:101B00002F433B43018102830384F0BD0A46002139
:101B1000018B4FF68F7319401143018370470A46BA
:101B20000021018B48F6FF7319404FF6FF7303EA5B
:101B300002231943018370470A460021818B4FF627
:101B40008F7319401143818370470A460021818BAE
:101B500048F6FF7319404FF6FF7303EA0223194357
:101B60008183704721B1028842F08002028004E044
:101B700002884FF67F731A400280704721B1828835
:101B800042F00402828004E082884FF6FB731A4020
:101B90008280704721B1828842F00802828004E08E
:101BA00082884FF6F7731A408280704721B182888D
:101BB00042F00102828004E082884FF6FE731A40F0
:101BC000828070470A460021018B4FF6F773194057
:101BD0001143018370470A460021018B4FF2FF73C6
:101BE00019404FF6FF7303EA02231943018370473C
:101BF0000A460021818B4FF6F77319401143818308
:101C000070470A460021818B4FF2FF7319404FF64F
:101C1000FF7303EA02231943818370470A460021B8
:101C2000018B4FF6FB7319401143018370470A463D
:101C30000021018B4FF6FF3319404FF6FF7303EA83
:101C400002231943018370470A460021818B4FF616
:101C5000FB7319401143818370470A460021818B31
:101C60004FF6FF3319404FF6FF7303EA022319437F
:101C7000818370470A460021018B4FF67F7319401C
:101C80001143018370470A460021018BC1F30E0105
:101C90004FF6FF7303EA02231943018370470A4694
:101CA0000021818B4FF67F73194011438183704768
:101CB0000A460021818BC1F30E014FF6FF7303EA40
:101CC00002231943818370470A460021018C4FF695
:101CD000FD7319401143018470470A460021018CAD
:101CE0004FF6F77319401143018470470A460021EB
:101CF000018C4FF6DF7319404FF6FF7303EA0213AE
:101D00001943018470470A460021018C4FF67F7306
:101D100019404FF6FF7303EA021319430184704719
:101D20000A460021018C4FF6FF5319404FF6FF730E
:101D300003EA02231943018470470A460021018CFB
:101D40004FF2FF7319404FF6FF7303EA0223194362
:101D5000018470470A460021018C4DF6FF7319403B
:101D60004FF6FF7303EA023319430184704730B51D
:101D7000002301248C40A3B2048C9C430484048C73
:101D800002FA01F5ADB22C43048430BD30B5002316
:101D900004248C40A3B2048C9C430484048C02FA77
:101DA00001F5ADB22C43048430BD70B5034600206C
:101DB00000241846183001258D40ACB21D8CA54377
:101DC0001D8409B1082909D100EB6100056825F0DF
:101DD000700505600568154305600EE00D1FC5F32D
:101DE0004E052844056825F4E045056005684FF672
:101DF000FF7606EA02263543056070BD21B10288F0
:101E000042F00202028004E002884FF6FD731A409D
:101E10000280704721B1028842F00402028004E08F
:101E200002884FF6FB731A400280704721B1828806
:101E300042F08002828004E082884FF67F731A406D
:101E40008280704702884FF6F7731A40028002883A
:101E50000A430280704782884FF68F731A4082804F
:101E600082880A438280704702894FF6F8731A40CD
:101E7000028102890A430281704702894FF67F730B
:101E80001A40028102890A430281704781847047A7
:101E900081857047818670470187704781877047C9
:101EA000A0F84010704702884FF6FF431A400280A6
:101EB00002880A43028070470146888E70470146B7
:101EC000088F70470146888F70470146B1F840007F
:101ED00070470146888C70470146088D704702465E
:101EE0000020138A0B400BB1012000E00020704756
:101EF000CA430282704730B5024600200023002406
:101F0000158A05EA0103958905EA010413B10CB1AC
:101F1000012000E0002030BDCA430282704700006B
:101F200030B5324800684FF47A72B0FBF2F1B1F18B
:101F3000807F01D301201DE021F07F40401E4FF043
:101F4000E022506150170F22002807DA13071D0EF8
:101F5000274B00F00F04241F1D5503E013071C0E30
:101F6000244B1C5400BF00204FF0E022906107205A
:101F70001061002008B100BFFEE730BD014601EB53
:101F8000C1024FF0E0235A6101221A6100229A61D6
:101F900000BF4FF0E022106900F001021AB100F416
:101FA0008032002AF5D000224FF0E0231A619A61B6
:101FB0007047014642F228324A434FF0E0235A610B
:101FC00001221A6100229A6100BF4FF0E0221069DD
:101FD00000F001021AB100F48032002AF5D000228C
:101FE0004FF0E0231A619A6170470000080000205A
:101FF00018ED00E000E400E000BF704700BF4B4A6E
:10200000128802F04002002AF9D0C2B2474B1B1DD1
:102010001A80704710B586B00446012144F20400CE
:10202000FEF708FE4148FEF769FE4FF40070ADF878
:10203000140003208DF8160018208DF8170005A94C
:102040003B48FEF73BFB4FF48060ADF814000420E2
:102050008DF8170005A93648FEF730FB25208DF8CE
:10206000000003208DF801008DF8020001208DF89A
:1020700003006846FEF759FA01940020ADF8080005
:10208000ADF80A00ADF80C00ADF810000C20ADF86A
:102090000E0001A92548FEF774FE012240F22551E9
:1020A0002248FEF706FF01212048FEF7F6FE06B0A3
:1020B00010BD10B540F225511C48FEF7DFFF10B3EC
:1020C0001A48FEF75BFFC4B21A48008800F40040CB
:1020D000C8B91848008800F4804060B10A2C03D0C9
:1020E00000201449088020E01248008840F4004095
:1020F0001049088019E00D2C06D10E48008840F4E4
:1021000080400C49088010E00A480088C0F30D00A8
:1021100009490C5407480088401C064908800846B5
:102120000088C72801DD0020088010BD003801406C
:102130000008014034000020EC00002000B587B00A
:1021400001210420FEF776FD01210820FEF772FD33
:1021500003208DF8020004208DF803000320ADF861
:10216000000069465C48FEF7A9FAC020ADF80000FF
:1021700069465A48FEF7A2FA01210846FEF767FDB4
:102180000020ADF810004FF6FF70ADF814000020ED
:10219000ADF81600ADF8120004A94FF08040FFF72B
:1021A00085F800231A4603214FF08040FFF78DFC8D
:1021B00001A8FFF7BAFB0A20ADF80C0001A94007FF
:1021C000FFF707FB01218807FFF792FE0122114666
:1021D0009007FFF7E2FB01210420FEF738FD002005
:1021E000ADF810004FF6FF70ADF814000020ADF808
:1021F0001600ADF8120004A93948FFF757F800237C
:102200001A4603213648FFF760FC01A8FFF78DFB53
:102210000A20ADF80C0001A93148FFF7DAFA0121D4
:102220002F48FFF765FE012211462D48FFF7B5FB49
:1022300000214FF08040FFF729FE01218807FFF7BA
:1022400091FB00212648FFF721FE01212448FFF7DA
:1022500089FB07B000BD22492431098809B24842F0
:1022600000211F4A2432118070474FF08041898C31
:1022700009B2484200214FF08042918470472DE915
:10228000F05F04460D461646FFF7EFFF8146FFF765
:10229000E2FF4742304604F042FB8246484604F0E3
:1022A00035FB8346514604F0DAF980460D4904F0C7
:1022B000A4F92060304604F032FB8246384604F030
:1022C00025FB8346514604F0CAF98046054904F0CF
:1022D00094F92860BDE8F09F00080140000C01401F
:1022E000000800408470514208B501211020FEF71B
:1022F000A1FC4FF4F870ADF8000010208DF8030039
:1023000003208DF8020069465148FEF7D7F94FF4D3
:1023100080714F48FEF77FFA08BD00B589B00121F2
:102320000220FEF794FC01210520FEF783FCC0206B
:10233000ADF8200018208DF8230003208DF822002E
:1023400008A94448FEF7BAF940F2E730ADF81800A2
:102350000020ADF81400ADF81A00ADF8160005A97C
:102360003D48FEF7A3FF6020ADF804000120ADF862
:1023700006000020ADF80C000120ADF8060000209A
:10238000ADF80A0001A93448FEF7CDFF0821324814
:10239000FFF718FC0120ADF806000020ADF80A0098
:1023A00001A92D48FFF701F808212B48FFF713FC7E
:1023B00001212948FFF7D6FA09B000BD10B504463F
:1023C000A1B22548FFF766FD10BD10B50446A1B2C5
:1023D0002148FFF761FD10BD10B510211C48FEF724
:1023E0001AFA20211A48FEF718FA10BD10B510216C
:1023F0001748FEF712FA20211548FEF70CFA10BD17
:1024000010B510211248FEF708FA20211048FEF7F7
:1024100004FA10BD10B540210D48FEF7FCF98021EB
:102420000B48FEF7FAF910BD10B540210848FEF739
:10243000F4F980210648FEF7EEF910BD10B54021F1
:102440000348FEF7EAF980210148FEF7E6F910BDDE
:102450000010014000080140000400407FB505461F
:102460000C4601210220FEF7F2FBA8B2ADF80800ED
:10247000A0B2ADF804000020ADF80A00ADF80600E7
:1024800001A92648FEF712FF00212448FFF76AFA47
:10249000012211462148FFF780FA4FF4C060FEF791
:1024A0003FF81D208DF8000002208DF801008DF806
:1024B000020001208DF803006846FEF736F87FBD64
:1024C00010B501211548FFF713FD15480068401CA1
:1024D0001349086010BD10B5002010492431088050
:1024E00001210E48FFF73EFA10BD10B500240B483D
:1024F00024300088401C0A4909684FF47A7202FBB4
:10250000010400210548FFF72DFA00200449086066
:10251000214604A004F09EFC10BD00000004004011
:1025200038000020543D256475730D0A000000003A
:1025300008B501210920FEF77DFB4FF44060ADF89E
:10254000000010208DF8030003208DF8020069467A
:10255000F948FEF7B3F80120F8490860F849C1F8D6
:10256000A80108BD08B54FF40060ADF800001020C8
:102570008DF8030003208DF802006946EE48FEF74F
:102580009DF808BD08B54FF40060ADF80000482084
:102590008DF803006946E848FEF790F808BD10B5CD
:1025A000FFF7E0FF0120E5490860E548D0F82C017D
:1025B00008B9002010BD0120E049091F0860FFF79D
:1025C000DDFC0020DE49C1F8AC01DC488038006841
:1025D00008B10020EEE70120FFF7D0FC0020D7492A
:1025E000091F08600120E5E710B5FFF7BBFF0020D9
:1025F000D249091F0860D249C1F8AC010120FFF798
:10260000BDFC0120CD49091F0860CD49C1F8AC01CE
:10261000FFF7B4FC10BD10B50024FFF7B3FF012095
:10262000C6490860FFF7AAFC0120C549C1F8A80106
:10263000FFF7A4FC0AE0601CC4B2322C03DDFFF7F4
:10264000D3FF002010BD0120FFF798FCBB48803865
:1026500000680028EFD1B949091F08600120F1E79F
:1026600010B50020B549091F0860FFF77BFF002067
:10267000B349C1F8AC010120FFF780FC0120AF494C
:10268000091F0860FFF77AFC0020AD49C1F8A801D6
:1026900010BD10B50020A949091F0860FFF762FFAF
:1026A0000120A749C1F8AC01FFF768FC0120A3494C
:1026B000091F0860FFF762FC0020A149C1F8A801CA
:1026C00010BD70B50446FFF74DFF00209B49091F60
:1026D0000860002516E0E009984908606006040ECD
:1026E0000120FFF74BFC01209549C1F8A801FFF735
:1026F00045FC00209149091F08600120FFF73EFCBE
:10270000681CC5B2082DE6DB70BD2DE9F041054619
:102710000E4617469846FFF742FF10B90120BDE864
:10272000F0816906080EFFF7CCFFFFF774FF18B9B8
:10273000FFF75AFF0120F2E73046FFF7C2FFFFF72D
:102740006AFF00240BE018F80400FFF7BAFFFFF758
:1027500062FF18B9FFF748FF0020E0E7641CBC42A5
:10276000F1DBFFF741FF0020D9E770B505460024F3
:10277000FFF708FF002617E000207049091F0860D6
:102780000220FFF7FBFB01206D49C1F8A80160069C
:10279000040E6A488038006808B1601CC4B2022088
:1027A000FFF7ECFB701CC6B2082EE5DB15B1FFF796
:1027B00057FF01E0FFF76DFF204670BD2DE9F041A6
:1027C00006460F4614461D46FFF7E9FE10B90120E4
:1027D000BDE8F0817106080EFFF773FFFFF71BFFDE
:1027E00018B9FFF701FF0120F2E73846FFF769FF4C
:1027F000FFF711FFFFF7D3FE012101EB4601C8B23D
:10280000FFF75FFFFFF707FF0DE0012C04D1002069
:10281000FFF7ABFF287003E00120FFF7A6FF287049
:102820006D1C601EC4B2002CEFD1FFF7DDFE00204E
:10283000CEE770B505460E460024FFF7B0FE2846E9
:10284000FFF73FFF641CFFF7E6FE3046FFF739FF56
:10285000641CFFF7E0FEFFF7A2FE691CC8B2FFF799
:1028600030FF641CFFF7D7FE0020FFF77EFF044611
:10287000FFF7BAFE204670BD2DE9F04107468846B5
:1028800015461E460024FFF78AFE3846FFF719FF5B
:10289000FFF7C1FE4046FFF714FFFFF7BCFEFFF74E
:1028A0007EFE791CC8B2FFF70CFFFFF7B4FE00BF35
:1028B0000DE0681EA04204D00120FFF756FF3055FE
:1028C00003E00020FFF751FF3055601CC4B2AC425A
:1028D000EFDBFFF789FE2046BDE8F0812DE9F041EE
:1028E00080460D4616461F460024FFF758FE404618
:1028F000FFF7E7FEFFF78FFE2846FFF7E2FEFFF740
:102900008AFE00BF06E0385DFFF7DBFEFFF783FEBF
:10291000601CC4B2B442F6DBFFF766FE0120BDE8DE
:10292000F08170B505460E46144631462846FFF73D
:1029300080FF2070012070BD000C0140AC8121425D
:102940000080214237B504460D4602AB01222946DC
:102950002046FFF7C3FF3EBD2DE9F84307468846F2
:1029600014461D46089E6A4641463846FFF7D9FF81
:1029700028B3601CFF2101FA00F0C4F108012944CA
:10298000491EFF220A41104300F0FF09C5F108006B
:1029900006FA00F0C6B2C4F1070006419DF8000037
:1029A00000EA090000909DF80000304300909DF877
:1029B000002041463846FFF7C5FFBDE8F8830020F8
:1029C000FBE7F8B506460F4614461D466A463946EB
:1029D0003046FFF7A6FF2DB10120A0409DF8001062
:1029E000084305E00120A0409DF8001021EA000006
:1029F000C0B200909DF8002039463046FFF7A2FF94
:102A0000F8BD0000014691F90020002A01DD0020F8
:102A10001EE091F90020002A01DA042018E091F963
:102A20000120002A01DD012012E091F90120002A95
:102A300001DA05200CE091F90220002A01DD0220D4
:102A400006E091F90220002A01DA062000E00720C2
:102A5000704770B505462846FFF7D4FF0446E81CCA
:102A6000FFF7D0FF44EAC00084B2A81DFFF7CAFFF9
:102A700044EA801084B2204670BD70B588B002A9C7
:102A800005A802F0ECF80446072C3FD101A801F09C
:102A90005BFB059803F03AFF0646019903F0ADFD94
:102AA000054603F041FF0590069803F02FFF064608
:102AB000019903F0A2FD054603F036FF0690079842
:102AC00003F024FF0646019903F097FD054603F045
:102AD0002BFF079005A802F0D2FB684601F051FBDE
:102AE000BDF80010029848430290BDF8001003980A
:102AF00048430390BDF8001004984843049002A88E
:102B000002F050FCFEA004F0A5F900BF08B070BDB3
:102B10002DE9F04304460D46DDE907670021012059
:102B200041E0DFF800C43CF81080A0F1010CDFF8B0
:102B3000F49329F81C8009F1160C3CF81090A0F1D0
:102B4000010CDFF8E08308F1160828F81C9008F162
:102B5000160C3CF81090A0F1010C08F1160828F8AA
:102B60001C9008F1160C3CF81090A0F1010C08F133
:102B7000160828F81C9008F1160C3CF81090A0F1EB
:102B8000010C08F1160828F81C9008F1160C3CF806
:102B90001090A0F1010C08F1160828F81C9000F123
:102BA000010C0CF0FF000A28BBDBDFF878C3ACF89F
:102BB0001240ACF82850ACF83E20ACF85430ACF8D9
:102BC0006A60ACF880700021002008E0DFF854C390
:102BD0003CF910C0614400F1010C0CF0FF000A2820
:102BE000F4DB4FF00A0C91FBFCFC0FFA8CFCDFF8D5
:102BF0003483A8F814C0002100200AE0DFF824C3C1
:102C00000CF1160C3CF910C0614400F1010C0CF001
:102C1000FF000A28F2DB4FF00A0C91FBFCFC0FFAD4
:102C20008CF8DFF800C3ACF82A80002100200AE00D
:102C3000DFF8F0C20CF12C0C3CF910C0614400F13B
:102C4000010C0CF0FF000A28F2DB4FF00A0C91FB9C
:102C5000FCFC0FFA8CF8DFF8CCC2ACF84080002105
:102C600000200AE0DFF8BCC20CF1420C3CF910C0B5
:102C7000614400F1010C0CF0FF000A28F2DB4FF078
:102C80000A0C91FBFCFC0FFA8CF8DFF898C2ACF848
:102C90005680002100200AE0DFF888C20CF1580CB1
:102CA0003CF910C0614400F1010C0CF0FF000A284F
:102CB000F2DB4FF00A0C91FBFCFC0FFA8CF8DFF80A
:102CC00064C2ACF86C80002100200AE0DFF854C236
:102CD0000CF16E0C3CF910C0614400F1010C0CF0D9
:102CE000FF000A28F2DB4FF00A0C91FBFCFC0FFA04
:102CF0008CF8DFF830C2ACF88280BDE8F08338B5DC
:102D00000446032302226B21D0200094FFF724FE07
:102D100038BD38B50446022304221B21D02000947C
:102D2000FFF71AFE38BD38B50446022304221C21E1
:102D3000D0200094FFF710FE38BD10B5044623469E
:102D400006226B21D020FFF73CFE10BD10B5764B5C
:102D500001227521D020FFF78FFD7348007810BD48
:102D600010B5FFF7F3FF682801D1012010BD002046
:102D7000FCE710B50446234605226A21D020FFF760
:102D800020FE10BD10B50446234601223721D02075
:102D9000FFF717FE10BD10B50220FFF7B0FF0320AC
:102DA000FFF7B7FF0020FFF7BEFF0020FFF7C5FFCA
:102DB0000020FFF7DEFF0020FFF7E4FF10BD38B56D
:102DC000002000906B46012275216820FFF7F6FC79
:102DD00056A004F03FF800F0C4FE00283CD1782053
:102DE00000F027FB10B951A004F034F8782000F06F
:102DF00007FD10B956A004F02DF8C82000F0E1FD41
:102E000010B95DA004F026F802F09EF910B964A094
:102E100004F020F86F48FFF71CFE044602F09EF90C
:102E200010B96DA004F016F840F2731002F0D7FD4F
:102E300010B973A004F00EF8C82002F049FB10B9D5
:102E400079A004F007F8FFF718FE012001F0C2FE98
:102E500010B97EA003F0FEFF38BD2DE9F04F8FB012
:102E60000CA883490DAB08AACDE90010814982481E
:102E700002F014FF7E48008800F4807000283DD0E6
:102E8000089803F043FD04464FF09D4103F0E7FB33
:102E90007A490860099803F039FD04464FF09D41D6
:102EA00003F0DDFB764908600A9803F02FFD044625
:102EB0004FF09D4103F0D3FB724908600B9803F07B
:102EC00025FD04464FF09D4103F0C9FB6E490860A3
:102ED0006A4801684FF0804003F08FFB0690694814
:102EE0000168069803F089FB8246654801684FF047
:102EF000404003F082FB06906348C7E089E1000090
:102F000073657474696E6720626961732073756399
:102F100063657366756C6C79202E2E2E2E2E2E0D09
:102F20000A000000C2010020B40100206D70755F2E
:102F30007365745F73656E736F7220636F6D706C11
:102F4000657465202E2E2E2E2E2E0D0A00000000F8
:102F50006D70755F636F6E6669677572655F6669D0
:102F6000666F20636F6D706C657465202E2E2E2E3B
:102F70002E2E0D0A000000006D70755F7365745F82
:102F800073616D706C655F7261746520636F6D70E5
:102F90006C657465202E2E2E2E2E2E0D0A0000003C
:102FA000646D705F6C6F61645F6D6F74696F6E5F8D
:102FB0006472697665725F6669726D7761726520A9
:102FC000636F6D706C657465202E2E2E2E2E2E0D67
:102FD0000A00000068000020646D705F7365745F14
:102FE0006F7269656E746174696F6E20636F6D7066
:102FF0006C657465202E2E2E2E2E2E0D0A000000DC
:10300000646D705F656E61626C655F666561747545
:10301000726520636F6D706C657465202E2E2E2E88
:103020002E2E0D0A00000000646D705F7365745FE2
:103030006669666F5F7261746520636F6D706C6541
:103040007465202E2E2E2E2E2E0D0A006D70755FAB
:103050007365745F646D705F737461746520636F12
:103060006D706C657465202E2E2E2E2E2E0D0A008E
:1030700048000020420000203C00002058000020B2
:103080005C000020600000206400002001680698B9
:1030900003F0B3FA8346514603F057FA079003F062
:1030A00070FC804604F0D2FB06464FF06632764B49
:1030B00003F0BAFB044603F077FC744908607448D7
:1030C00001684FF0804003F098FA0390704801685F
:1030D000039803F092FA82466E4801684FF0404030
:1030E00003F08BFA03906B480168039803F085FAAC
:1030F0008346514603F07BFA81464FF07E5103F040
:1031000024FA044603F03DFCCDE90401624801685D
:103110004FF0804003F071FA83465E4801685846DC
:1031200003F06BFA81465A4801684FF0804003F083
:1031300064FA834659480168584603F05EFA8246AD
:10314000494603F002FA044603F01BFC0746DDE99A
:10315000042304F0C3FD4FF066324B4BCDE906016A
:1031600003F062FB054603F01FFC4D4908604B4825
:103170000168006803F041FA03904548016800685F
:1031800003F03BFA029043480168006803F035FA07
:10319000834641480168006803F02FFA59460190C0
:1031A00003F0D3F98246029903F021FA814603998C
:1031B00003F01DFA044603F0E4FBCDE904013748AF
:1031C00001683548006803F018FA82463048016803
:1031D0003048006803F011FA8346514603F0B5F910
:1031E00081464FF0804103F008FA044603F0C9FB22
:1031F0000746DDE9042304F071FD4FF06632224BEF
:10320000CDE9060103F010FB054603F0CDFB25498F
:1032100008600FB0BDE8F08F2DE9F05F4221D020AB
:10322000FFF707FB05464121D020FFF702FB05EB26
:103230000024204603F06AFB82464FF08E41504640
:1032400003F0D8FB05D24FF08F41504603F0CFF981
:1032500082461549504603F002FA834603F091FB7B
:103260008046124A124B03F038FA06460022114BF0
:1032700003F0DAFA044603F097FB8246504603F067
:1032800053FBBDE8F09F000066A64C4050000020B4
:10329000600000205C000020580000206400002036
:1032A000540000204C0000200000AA43A4703D0AF6
:1032B000D74342400000244038B50446FB4890F80C
:1032C0002400C0B114B10220009001E00020009061
:1032D000F64A1268D17BF54A526810786B46012293
:1032E000FFF713FA10B14FF0FF3038BD9DF8001012
:1032F000EE48417423E0ED48807A10B94FF0FF307A
:10330000F3E724B1E948407C08B10020EDE714B1AF
:103310000120009001E000200090E44A1268D17B77
:10332000E24A526810786B460122FFF7EEF910B1BD
:103330004FF0FF30D9E79DF80010DC4841740020C1
:10334000D3E738B5002419E0D8480068C07AA04215
:1033500004D0D6480068407DA04200D10CE0D3499B
:10336000496808786B4601222146FFF727FA10B119
:103370004FF0FF3038BD00BF601CC4B2CB4840687E
:103380000079A042E0DC0020F4E770B504460D4669
:10339000C6480068C07AA04204D0C4480068407D96
:1033A000A04202D14FF0FF3070BDC04840680079A4
:1033B000A04202DC4FF0FF30F6E7BC4949680878CC
:1033C0002B4601222146FFF7F9F9EDE738B504460F
:1033D000B64890F82300A04201D1002038BD14B1B6
:1033E0003020009001E000200090B048807C20B1A7
:1033F0009DF8000040F002000090AC4890F82200D8
:1034000020B19DF8000040F080000090A74A1268AB
:10341000117DA64A526810786B460122FFF775F9B4
:1034200010B14FF0FF30D9E7A04880F823400020CA
:10343000D4E738B5044604F0700010B101200090C4
:1034400005E014B10020009001E040200090974A70
:103450001268917C954A526810786B460122FFF7FA
:1034600054F920B1002191488172481E38BD9DF861
:10347000000020F040018D4801730020009004F00E
:10348000400020B99DF8000040F00400009004F0D6
:10349000200020B99DF8000040F00200009004F0E8
:1034A000100020B99DF8000040F00100009004F0E9
:1034B000080020B99DF8000040F0380000907B4AD9
:1034C0001268D17C794A526810786B460122FFF766
:1034D0001CF920B1002175488172481EC6E724B14D
:1034E000082C02D00020FFF771FF70488472002181
:1034F00001753220FEF75DFD0020B7E738B50446C0
:103500006A48807CA04201D1002038BD002C46D002
:10351000664A12681179654A526810786B46012232
:10352000FFF74CF910B14FF0FF30EEE79DF80000C7
:1035300020F0200000905D4A126811795B4A5268C1
:1035400010786B460122FFF7E0F810B14FF0FF3022
:10355000DBE70320FEF72DFD02200090534890F892
:10356000220020B19DF8000040F0800000904F48FC
:1035700090F8230020B19DF8000040F0300000904A
:103580004A4A1268117D494A526810786B460122F6
:10359000FFF7BBF8002851D04FF0FF30B5E7434AA2
:1035A00012681179414A526810786B460122FFF780
:1035B00005F910B14FF0FF30A7E73C48807A00F0E2
:1035C000010028B19DF8000040F02000009004E0C8
:1035D0009DF8000020F020000090344A1268117914
:1035E000324A526810786B460122FFF78EF810B10C
:1035F0004FF0FF3089E70320FEF7DBFC2B4890F803
:10360000220010B18020009001E0002000902748A7
:1036100090F8230020B19DF8000040F030000090A9
:10362000224A1268117D214A526810786B460122A5
:10363000FFF76BF810B14FF0FF3066E71B4884745A
:10364000002062E708B51948807A10B94FF0FF30C2
:1036500008BD00200090154A1268D17B134A5268B9
:1036600010786B460122FFF750F810B14FF0FF3091
:10367000EEE70E4A126851790C4A526810786B4690
:103680000122FFF742F810B14FF0FF30E0E7074AA0
:1036900012681179054A526810786B460122FFF7CB
:1036A00034F828B14FF0FF30D2E700007800002056
:1036B000F74890F82400002850D00C200090F44ADD
:1036C00012681179F24A526810786B460122FFF7AE
:1036D0001CF810B14FF0FF30BAE7C0200090EC4862
:1036E000807A00F0010020B19DF8000040F0200039
:1036F0000090E74A12681179E54A526810786B46E3
:103700000122FFF702F810B14FF0FF30A0E7E048C8
:10371000407C10B10220009001E000200090DC4AC3
:103720001268D17BDA4A526810786B460122FEF7A4
:10373000ECFF10B14FF0FF308AE700200090D44A30
:1037400012685179D24A526810786B460122FEF70E
:10375000DCFF002852D04FF0FF3079E704200090C2
:10376000CB4A12681179CA4A526810786B46012216
:10377000FEF7CBFF10B14FF0FF3069E7C448807C03
:1037800020B9C348807A00F0010010B940200090B1
:1037900001E060200090BE4A12681179BC4A52686C
:1037A00010786B460122FEF7B0FF10B14FF0FF30EA
:1037B0004EE7B748407C10B10120009001E00020A6
:1037C0000090B34A1268D17BB14A526810786B46B8
:1037D0000122FEF79AFF10B14FF0FF3038E7AC4AF4
:1037E00012685179AA4A52681078A94B1033012205
:1037F000FEF78BFF10B14FF0FF3029E7002027E7DD
:1038000070B50446002624F00104A14890F8240075
:1038100008B1002070BD9E48807A10B94FF0FF308B
:10382000F8E79B48057C807A20409949087408464F
:10383000007CA04202D04FF0FF3600E0002614B911
:103840009348007D18B10120FFF736FD02E000200B
:10385000FFF732FD3CB1FFF7F5FE20B18C4805744F
:103860004FF0FF30D6E73046D4E738B504468848F5
:10387000807A10B94FF0FF3038BDBC2C02DB01203C
:10388000009015E0622C02DB0220009010E02A2C50
:1038900002DB032000900BE0142C02DB04200090DC
:1038A00006E00A2C02DB0520009001E006200090D3
:1038B0007748C07A9DF80010884201D10020DBE7EC
:1038C000734A12689178724A526810786B460122E6
:1038D000FEF71BFF10B14FF0FF30CDE79DF8001051
:1038E0006B48C1720020C7E738B50446282C02DDBA
:1038F0004FF0FF3038BDDCB90020FFF767FD002036
:103900008DF8000007208DF80100614A1268917C53
:103910005F4A526810786B460222FEF7F6FE10B13D
:103920004FF0FF30E6E70021594801750020E1E73C
:103930000120FFF74BFD20208DF80000012C06D15F
:1039400000208DF801000520FFF78FFF17E0052C00
:1039500006DC01208DF801000520FFF786FF0EE050
:10396000142C06DC02208DF801000A20FFF77DFFF1
:1039700005E003208DF801001420FFF776FF9DF885
:103980000100072101EB8010C0B28DF80100404A10
:103990001268917C3E4A526810786B460222FEF70C
:1039A000B4FE10B14FF0FF30A4E70821384881720F
:1039B00000210173012101750020FFF721FF002084
:1039C00098E738B504463248807A10B94FF0FF3096
:1039D00038BD2F4890F8240010B14FF0FF30F7E7C2
:1039E0002B48007D50B134B1282C04DCE0B2FFF745
:1039F0007BFF0020ECE70020FFF776FF042C01DAC4
:103A0000042404E0B4F57A7F01DD4FF47A744FF4B6
:103A10007A7090FBF4F0401EC0B200901C4A12680D
:103A200051781B4A526810786B460122FEF76DFEF2
:103A300010B14FF0FF30CBE79DF80000401C4FF471
:103A40007A7191FBF0F081B21148C1810146C989B8
:103A50004810FFF70AFF0020BAE738B504460C48C3
:103A6000807A10B94FF0FF3038BD022C06D0042CFC
:103A700007D0082C08D0102C0FD10BE000200090AC
:103A80000EE0082000900BE01020009008E00000FD
:103A9000780000201820009002E04FF0FF30E3E7AC
:103AA00000BFF948407A9DF80010B0EBE10F01D15A
:103AB0000020D9E7F44A1268D179F34A52681078A5
:103AC0006B460122FEF721FE10B14FF0FF30CBE72D
:103AD0009DF80000C110EC4841720020C4E738B5E1
:103AE0000446E948807A10B94FF0FF3038BDFA2C0F
:103AF00009D0B4F5FA7F09D0B4F57A7F09D0B4F5CE
:103B0000FA6F0CD108E0002000900BE00820009034
:103B100008E01020009005E01820009002E04FF02F
:103B2000FF30E3E700BFD848007A9DF80010B0EB03
:103B3000E10F01D10020D9E7D34A12689179D24A26
:103B4000526810786B460122FEF7DFFD10B14FF08E
:103B5000FF30CBE79DF80000C010CB490872002071
:103B6000C4E71CB580208DF80000C74A1268917C1C
:103B7000C54A526810786B460122FEF7C6FD10B1A7
:103B80004FF0FF301CBD6420FEF713FA00208DF8C3
:103B90000000BD4A1268917CBB4A526810786B469F
:103BA0000122FEF7B2FD10B14FF0FF30EAE7B64A4E
:103BB0001268917DB44A526810786B460622FEF76F
:103BC000FDFD10B14FF0FF30DCE79DF80500C007A8
:103BD000400F9DF8031001F0010140EA41009DF8FB
:103BE000011001F0010140EA010494B1012C03D15C
:103BF0000121A548C17431E0022C03D10021A24863
:103C0000C1742BE02146A1A003F024F94FF0FF304E
:103C1000B8E79D4A1268D1789B4A526810786B4683
:103C20000122FEF7CBFD10B14FF0FF30AAE79DF85F
:103C3000000000F00F042CB99E4803F00BF94FF080
:103C4000FF309FE7042C06D19BA003F003F901216C
:103C50008D48C17402E000218B48C174FF218A485D
:103C60008172FF2088490872FF2187484172C17222
:103C70004FF6FF71C181FF2101748174012101732D
:103C800080F82210002180F823104175017516304C
:103C9000016041608160163880F8241080F825109A
:103CA000C1844FF4FA60FFF71AFF10B14FF0FF30F4
:103CB00068E70220FFF7D1FE10B14FF0FF3061E757
:103CC0002A20FFF7D2FD10B14FF0FF305AE7322023
:103CD000FFF777FE10B14FF0FF3053E70020FFF7FA
:103CE0008FFD10B14FF0FF304CE70020FFF706FCCE
:103CF00010B14FF0FF3045E70020FFF79AFB00209E
:103D000040E770477CB504460D465F48807A00F076
:103D1000700010B94FF0FF307CBD5B4A1268117B18
:103D2000594A526810786B460622FEF747FD10B1DB
:103D30004FF0FF30F0E79DF801009DF8001040EAD9
:103D4000012000B220809DF803009DF8021040EA97
:103D5000012000B260809DF805009DF8041040EA43
:103D6000012000B2A08015B12846FFF7CAFF00204D
:103D7000D2E77CB504460D464348807A00F008003F
:103D800010B94FF0FF307CBD3F4A1268517B3E4A6C
:103D9000526810786B460622FEF710FD10B14FF006
:103DA000FF30F0E79DF801009DF8001040EA012087
:103DB00000B220809DF803009DF8021040EA012027
:103DC00000B260809DF805009DF8041040EA0120D3
:103DD00000B2A08015B12846FFF793FF0020D2E77C
:103DE0002DE9FE4F05460C462748807A18B94FF05A
:103DF000FF30BDE8FE8F244A1268917B224A526848
:103E0000107802AB0222FEF7D9FC10B14FF0FF3060
:103E1000EFE79DF809009DF8081040EA012006B27E
:103E200014B12046FFF76DFF17494968C88802F0B2
:103E300076FD154901904968B1F9080002F066FD68
:103E40008346304602F062FD5946009002F0CFFBF7
:103E50008246019902F003FC81461F4902F075FB7E
:103E600080464FF08F4102F0C8FB074602F05CFD30
:103E700028600020BDE710B588B004461CB94FF09B
:103E8000FF3008B010BD29E078000020556E737532
:103E900070706F7274656420736F66747761726599
:103EA0002070726F64756374207265762025642EAD
:103EB0000A000000E08B000848616C662073656EA4
:103EC0007369746976697479207061727420666FA1
:103ED000756E642E0D0A000000000C42206830B997
:103EE000606820B9A06810B9002008B010BDFA4978
:103EF0004968087806AB03221146FEF75FFC10B153
:103F00004FF0FF30F1E79DF81800082101EB201079
:103F100000F00F00ADF800009DF8190001EB201033
:103F200000F00F00ADF802009DF81A0001EB201020
:103F300000F00F00ADF8040020684100BDF900005A
:103F4000403091FBF0F000B2ADF810006068410025
:103F5000BDF90200403091FBF0F000B2ADF8120064
:103F6000A0684100BDF90400403091FBF0F000B2C0
:103F7000ADF81400D8494968087806AB0622114606
:103F8000FEF71CFC10B14FF0FF30AEE79DF81900B2
:103F90009DF8181040EA012000B2ADF808009DF825
:103FA0001B009DF81A1040EA012000B2ADF80A008B
:103FB0009DF81D009DF81C1040EA012000B2ADF8EC
:103FC0000C00BDF81000BDF80810084400B2ADF8B0
:103FD0001000BDF81200BDF80A10084400B2ADF898
:103FE0001200BDF81400BDF80C10084400B2ADF882
:103FF0001400BDF81000000A8DF81800BDF810007C
:10400000C0B28DF81900BDF81200000A8DF81A0030
:10401000BDF81200C0B28DF81B00BDF81400000AF4
:104020008DF81C00BDF81400C0B28DF81D00AA491F
:104030004968087806AB06221146FEF766FB10B108
:104040004FF0FF3051E700204FE70146A248007AC9
:1040500030B1012807D0022809D003280FD10AE087
:10406000FA2008800EE04FF4FA7008800AE04FF45E
:104070007A70088006E04FF4FA60088002E00020C1
:10408000088000BF00BF0020704701469248407A78
:1040900030B1012807D0022808D003280CD108E04D
:1040A000022008700BE00420087008E00820087067
:1040B00005E01020087002E04FF0FF30704700BFAD
:1040C0008548C07C18B108784006000E08700020B2
:1040D000F4E701468048C07A082817D2DFE800F0EC
:1040E0001704070A0D101318BC20088013E0622083
:1040F000088010E02A2008800DE0142008800AE0E3
:104100000A20088007E00520088004E000BF00BF07
:104110000020088000BF00BF0020704701466E48A5
:1041200090F8240010B14FF0FF3070476A48C08902
:1041300008800020F9E7014600200880401E7047F3
:1041400001464FF0FF30704701466348007A30B1B6
:10415000012807D0022808D003280CD108E05F48C6
:1041600008600BE05E48086008E05E48086005E013
:104170005D48086002E04FF0FF30704700BF00204C
:10418000FBE701465448407A30B1012808D00228A4
:104190000AD0032810D10BE04FF4804008800EE0D5
:1041A00041F69C7008800AE04FF48050088006E0D9
:1041B0004FF40060088002E04FF0FF30704700BF0E
:1041C0004548C07C10B10888401008800020F5E701
:1041D00001464148007C08700020704701463E4877
:1041E000807A10B10120087001E0002008700020E2
:1041F000704738B504463848807A10B94FF0FF3020
:1042000038BD354A1268117C334A526810786B46C3
:104210000222FEF7D3FA10B14FF0FF30F0E79DF81D
:1042200001009DF8001040EA012000B2208000202B
:10423000E6E72DE9FE4F0746884692461D46DDF823
:1042400030B000260024244890F8240010B1601EED
:10425000BDE8FE8F002028701F48807A10B94FF00B
:10426000FF30F5E71C48007C10B94FF0FF30EFE756
:104270001948007C00F0400008B1B01CC6B21648D6
:10428000007C00F0200008B1B01CC6B21248007CCF
:1042900000F0100008B1B01CC6B20F48007C00F05E
:1042A000080008B1B01DC6B20B4A1268917A0A4ADA
:1042B000526810786B460222FEF780FA10B14FF078
:1042C000FF30C5E79DF801009DF8001040EA012984
:1042D000B1450BDA0020BBE7780000200000034363
:1042E000000083423333034233338341FC48406848
:1042F0004088B9EB600F17DDF94A1268517CF84A23
:10430000526810786B460122FEF758FA10B14FF050
:10431000FF309DE79DF8000000F0100020B1FFF78E
:1043200091F96FF0010093E75046FFF7EAFCEC4A81
:104330001268D17AEA4A526810786B463246FEF724
:104340003DFA10B14FF0FF3082E799FBF6F0401EC6
:104350008BF8000000202870B4422AD0E048007C8E
:1043600000F0080028B3601C1DF800001DF80410C0
:1043700040EA012000B2A8F80000E01C1DF800107F
:10438000A01C1DF8000041EA002000B2A8F80200BD
:10439000601D1DF80010201D1DF8000041EA0020DE
:1043A00000B2A8F80400287840F008002870A01D8A
:1043B00084B2B44213D0CA48007C00F0400070B10F
:1043C000601C1DF800001DF8041040EA012000B236
:1043D0003880287840F040002870A01C84B2B44295
:1043E00013D0BF48007C00F0200070B1601C1DF8A5
:1043F00000001DF8041040EA012000B278802878FF
:1044000040F020002870A01C84B2B44213D0B448FD
:10441000007C00F0100070B1601C1DF800001DF859
:10442000041040EA012000B2B880287840F0100063
:104430002870A01C84B200200AE7F8B504460F4695
:104440001646A74890F8240010B94FF0FF30F8BD89
:10445000A348807A10B94FF0FF30F8E7A04A1268FD
:10446000917A9F4A526810786B460222FEF7A6F9AD
:1044700010B14FF0FF30EAE79DF801009DF8001001
:1044800040EA0125A54203DA00203070401EDEE735
:10449000934840684088B5EB600F17DD904A12687A
:1044A000517C8F4A526810786B460122FEF786F9DC
:1044B00010B14FF0FF30CAE79DF8000000F0100087
:1044C00020B1FFF7BFF86FF00100C0E7E2B2844B04
:1044D0001B68D97A824B5B6818783B46FEF76EF909
:1044E00010B14FF0FF30B2E795FBF4F0401E307092
:1044F0000020ACE701467A4880F82210002070477F
:104500007CB5054676494968087801AB04220D213F
:10451000FEF754F908B107207CBD9DF80700C0F3F1
:1045200001109DF8041001F0E00140EAE1008DF86F
:1045300000009DF80700C0F381009DF8051001F010
:10454000E00140EAE1008DF801009DF8070000F06D
:1045500003009DF8061001F0E00140EAE1008DF84B
:10456000020000241CE01DF8040018B9002045F8E2
:10457000240013E05B4845F8240006E055F82400C9
:10458000594902F03AF845F824001DF80400401E8D
:10459000C0B20DF804000028F0D100BF601CC4B206
:1045A000032CE0DB0020B7E72DE9FE4F06460F465F
:1045B00000256846FFF7A4FF002442E056F82400D7
:1045C00057F82410A0EB010ABAF1000F01DB5146A5
:1045D00001E0CAF10001084602F098F983464FF065
:1045E0008F4102F03CF880465DF82400002102F083
:1045F000F7F916D05DF82410404602F030F88246F4
:104600004FF07E5101F0F3FF814629F0004A374810
:10461000416A504602F0EEF912D20120A040054353
:104620000EE03248C169404602F0DAF905D32F485E
:10463000016A404602F0DEF902D20120A0400543A3
:10464000641C032CBADB2846BDE8FE8F2DE9FC5F15
:1046500006460F46002522494968087801AB032227
:104660000D21FEF7ABF810B10720BDE8FC9F9DF8C7
:10467000040000F01F008DF804009DF8050000F014
:104680001F008DF805009DF8060000F01F008DF852
:104690000600002462E056F8240057F82410A0EB2E
:1046A000010BBBF1000F01DB594601E0CBF100012A
:1046B000084602F02BF94FF08F41009001F0CFFF38
:1046C000814601A8005DC0B30849086802F027F9D7
:1046D00083465946064801F0C2FF80460FE00000BD
:1046E000780000207B14AE3E1D5A843FD07E000827
:1046F00000B04C45FE49404601F07FFF804601A8CE
:10470000005D401EC0B201A908550028F2D1414603
:10471000484601F0A4FF83464FF07E5101F067FF49
:1047200082462AF0004BF3488169584602F062F94C
:1047300013D20120A04005430FE0FFE7ED480169D7
:10474000484602F04DF905D3EA484169484602F06F
:1047500051F902D20120A0400543641C032C9ADBCE
:10476000284682E72DE9F04F87B005460C46914672
:1047700001208DF8100000208DF81100DE4A12682B
:10478000917CDD4A5268107804AB0222FDF7BDFF30
:1047900020B14FF0FF3007B0BDE8F08FC820FDF723
:1047A00008FC00208DF81000D34A1268D17BD24A51
:1047B0005268107804AB0122FDF7A7FF10B14FF04B
:1047C000FF30E8E7CC4A12685179CB4A526810783A
:1047D00004AB0122FDF799FF10B14FF0FF30DAE78B
:1047E000C54A1268917CC44A5268107804AB012211
:1047F000FDF78BFF10B14FF0FF30CCE7BE4A1268D7
:10480000D17DBD4A5268107804AB0122FDF77DFFCF
:1048100010B14FF0FF30BEE7B74A12681179B64ABF
:104820005268107804AB0122FDF76FFF10B14FF012
:10483000FF30B0E70C208DF81000AF4A12681179F4
:10484000AD4A5268107804AB0122FDF75EFF10B14B
:104850004FF0FF309FE70F20FDF7ABFBA648806AC3
:10486000407A8DF81000A44A12689178A24A5268E2
:10487000107804AB0122FDF748FF10B14FF0FF3074
:1048800089E79D48806A007A8DF810009A4A12687C
:104890005178994A5268107804AB0122FDF735FF30
:1048A00010B14FF0FF3076E7B9F1000F07D0924812
:1048B000806A807A40F0E0008DF8100004E08E48B5
:1048C000806A807A8DF810008B4A126891798A4A42
:1048D0005268107804AB0122FDF717FF10B14FF0BA
:1048E000FF3058E7B9F1000F07D08348806AC07ADB
:1048F00040F0E0008DF8100003E07E48C07A8DF8AB
:1049000010007D4A1268D1797B4A5268107804AB56
:104910000122FDF7FAFE10B14FF0FF303BE7B9F18D
:10492000000F02D0C820FDF744FB40208DF8100096
:10493000714A12681179704A5268107804AB0122EA
:10494000FDF7E3FE10B14FF0FF3024E778208DF83B
:104950001000694A12685179674A5268107804ABAE
:104960000122FDF7D2FE10B14FF0FF3013E761498D
:104970008889FDF71EFB00208DF810005E4A126842
:1049800051795D4A5268107804AB0122FDF7BDFEF3
:1049900010B14FF0FF30FEE6574A1268917A564A3E
:1049A0005268107804AB0222FDF708FF10B14FF0F7
:1049B000FF30F0E69DF811009DF8101040EA012B41
:1049C0000C209BFBF0F0C6B20020A8606860286055
:1049D000A06060602060824665E0474A1268D17A34
:1049E000454A5268107804AB0C22FDF7E7FE10B17F
:1049F0004FF0FF30CFE69DF811009DF8101040EA0F
:104A0000012000B2ADF808009DF813009DF81210C7
:104A100040EA012000B2ADF80A009DF815009DF8AB
:104A2000141040EA012000B2ADF80C00BDF90810E6
:104A3000206808442060BDF90A106068084460607E
:104A4000BDF90C10A0680844A0609DF817009DF8FF
:104A5000161040EA012000B2ADF800009DF81900E0
:104A60009DF8181040EA012000B2ADF802009DF850
:104A70001B009DF81A1040EA012000B2ADF80400B6
:104A8000BDF90010286808442860BDF90210686864
:104A900008446860BDF90410A8680844A8600AF1D9
:104AA000010000F0FF0AB24597DB1248D0F800C0C1
:104AB0002868C117090441EA10410704624600232F
:104AC000384601F0D9FC32460023CDE9020101F05D
:104AD000D3FC28600748D0F800C06868C1170904F3
:104AE00041EA1041070462460023384606E0000010
:104AF00054E3853FD07E00087800002001F0BCFC24
:104B000032460023CDE9020101F0B6FC6860FE48A0
:104B1000D0F800C0A868C117090441EA1041070491
:104B200062460023384601F0A7FC32460023CDE957
:104B3000020101F0A1FCA860F348D0F804C021688C
:104B4000C817000440EA11480F04624600233846A3
:104B5000414601F091FC32460023CDE9020101F00B
:104B60008BFC2060E848D0F804C06068C1170904D5
:104B700041EA1041070462460023384601F07CFCFC
:104B800032460023CDE9020101F076FC6060DE4888
:104B9000D0F804C0A068C117090441EA1041070415
:104BA00062460023384601F067FC32460023CDE917
:104BB000020101F061FCA060A068002804DDA0688B
:104BC000A0F58030A06003E0A06800F58030A06010
:104BD0000020E0E538B50446CC4890F82400A04217
:104BE00001D1002038BD24B3C84890F8250010B981
:104BF0004FF0FF30F6E70020FEF75EFB0020FEF7E7
:104C00007DFCC249C88CFEF7DCFE00200090BF4945
:104C1000496808786B4601222321FDF776FD0121C2
:104C2000BA4880F824100120FEF746FBFEF70AFD83
:104C300013E00020FEF740FBB448007C0090B3492D
:104C4000496808786B4601222321FDF75EFD0021AB
:104C5000AE4880F82410FEF7F5FC0020C2E72DE9ED
:104C6000F04F8DB083460F4602200C90A74890F875
:104C7000240020B10020FFF7ADFF012600E0002650
:104C800003A8FFF7E2F905A8FFF7FFF901A8FFF76E
:104C900020FA02A8FFF742FA9C4890F80AA004A85C
:104CA000FFF796FA002407E0002239465846FFF73E
:104CB00059FD00B902E0641C022CF5DB00BF022C98
:104CC00001D1002528E0002407E0012206A909A857
:104CD000FFF748FD00B902E0641C022CF5DB00BFC1
:104CE000022C01D1002517E006A93846FFF75CFC2D
:104CF00000F0FF0809A95846FFF7A8FC00F0FF09DB
:104D00000025B9F1000F01D145F00105B8F1000F00
:104D100001D145F0020500BFFF207C490872FF2148
:104D20007A484172C1724FF6FF71C181FF218172D1
:104D3000017401210173BDF80C00FEF7D0FE9DF84F
:104D40001400FEF78AFEBDF80400FEF78EFDBDF8E4
:104D50000800FEF736FE5046FEF76BFB9DF810008C
:104D6000FEF74EFD16B10120FFF734FF28460DB0C7
:104D7000BDE8F08FF8B504460D46164616B94FF05B
:104D8000FF30F8BD6148807A10B94FF0FF30F8E786
:104D900020128DF80000E0B28DF801009DF80100AE
:104DA00028445A4949684989884202DD4FF0FF305A
:104DB000E7E7564A1268117E544A526810786B46EB
:104DC0000222FDF7A2FC10B14FF0FF30D9E7EAB2A2
:104DD0004E4B1B68597D4D4B5B6818783346FDF789
:104DE00094FC10B14FF0FF30CBE70020C9E7F8B5D5
:104DF00004460D46164616B94FF0FF30F8BD43483D
:104E0000807A10B94FF0FF30F8E720128DF80000DB
:104E1000E0B28DF801009DF8010028443B49496843
:104E20004989884202DD4FF0FF30E7E7374A1268D0
:104E3000117E364A526810786B460222FDF765FCF7
:104E400010B14FF0FF30D9E7EAB2304B1B68597D03
:104E50002E4B5B6818783346FDF7B0FC10B14FF06D
:104E6000FF30CBE70020C9E72DE9F04385B00546C8
:104E70000E4690469946254890F8250020B14FF0FF
:104E8000FF3005B0BDE8F08316B94FF0FF30F8E70A
:104E9000002423E0281B102801DD102000E0281B3F
:104EA00087B2321939462046FFF764FF10B14FF040
:104EB000FF30E6E701AA39462046FFF798FF10B118
:104EC0004FF0FF30DDE730193A4601A901F030FB21
:104ED00010B16FF00100D4E7E01984B2AC42D9DB25
:104EE0004FEA28208DF8000008F0FF008DF801003F
:104EF000064A1268917E054A526810786B46022273
:104F0000FDF703FC38B103E0D07E000878000020F4
:104F10004FF0FF30B5E701218A4880F82510A0F84E
:104F200026900020ADE70146864890F824000870DE
:104F30000020704702464FF0FF30704701464FF0A7
:104F4000FF307047F8B505460F461446002C70D068
:104F5000B5F5FF5F01DDFF2605E0202D01DA012612
:104F600001E0C5F3471607B90127282C02DD4FF0F1
:104F7000FF30F8BD7348407D28BB724890F824008C
:104F800038B10020FFF726FE01216E4880F820107E
:104F900003E000216B4880F820106A481630FFF7C4
:104FA00054F868481830FFF770F866481A30FFF771
:104FB00090F864481C30FFF7B1F86248817A817735
:104FC0001F30FFF705F90020FEF776F90020FEF705
:104FD0008BFC00208DF800005A4A12689178594ADB
:104FE000526810786B460122FDF78FFB10B14FF02D
:104FF000FF30BEE740208DF80000524A1268D17B96
:10500000504A526810786B460122FDF77EFB00B1D2
:1050100065E08DF800608DF801704A4A1268117AD7
:10502000484A526810786B460222FDF76EFB08B1C1
:1050300055E047E00520FCF7BCFF4248407A0721D5
:1050400001EBC000C0B28DF800003E4A1268D17971
:105050003C4A526810786B460122FDF756FB00B1BE
:105060003DE020208DF80000012C03D100208DF8B8
:1050700001000EE0052C03DC01208DF8010008E0A2
:10508000142C03DC02208DF8010002E003208DF8CF
:1050900001009DF80100072101EB8010C0B28DF8DE
:1050A0000100284A1268917C264A526810786B46A3
:1050B0000222FDF72AFB00B111E0012121484175D0
:1050C000002056E71F4A1632002103E0505C00B171
:1050D00005E0491C0C29F9D34FF0FF3049E7FF20C8
:1050E00018490872FF2117484172C1724FF6FF71CB
:1050F000C181FF2181720174012101730146887F02
:10510000FEF797F90F49C88AFEF7E9FC0D49087EBA
:10511000FEF7A3FC0B49488BFEF7A7FB0949888BD8
:10512000FEF74FFC0749C87FFEF76AFB054890F879
:10513000200010B10120FFF74DFD0021014841750D
:10514000002016E77800002010B5C8234FF48062D5
:10515000F74940F6F630FFF787FE10BD10B586B070
:105160000446F4A000680390F3A000680290F3A046
:1051700000680190F2A00068009004F0030003A909
:10518000085C8DF8140003A8C4F3C101405C8DF8DD
:10519000150003A8C4F38111405C8DF8160004F0DB
:1051A000030002A9085C8DF8100002A8C4F3C10135
:1051B000405C8DF8110002A8C4F38111405C8DF8A9
:1051C000120005AA032140F22640FFF7D3FD18B1D3
:1051D0004FF0FF3006B010BD04AA032140F22A4070
:1051E000FFF7C8FD10B14FF0FF30F3E701980590CD
:1051F0000098049004F0040058B19DF8140040F0A9
:1052000001008DF814009DF8100040F001008DF8A9
:10521000100004F0200058B19DF8150040F0010086
:105220008DF815009DF8110040F001008DF8110077
:1052300004F4807058B19DF8160040F001008DF81C
:1052400016009DF8120040F001008DF8120005AA2A
:1052500003214FF48860FFF78DFD10B14FF0FF3050
:10526000B8E704AA032140F23140FFF783FD10B1F3
:105270004FF0FF30AEE7B34804810020AAE71FB526
:105280000446B048007A00F0030054F82000019072
:10529000AC48007A00F0040010B10198404201903F
:1052A000A848007AC0F3C10054F820000290A54835
:1052B000007A00F0200010B1029840420290A1480C
:1052C000007AC0F3811054F8200003909D480089B3
:1052D00000F4807010B10398404203909A490198FD
:1052E00080FB0101800F40EA8100019096490298FD
:1052F00080FB0110820042EA91700290924903986B
:1053000080FB0110820042EA917003900198000E28
:105310008DF800000198000C8DF801000198000A3A
:105320008DF802000198C0B28DF803006A4604218E
:105330004FF47470FFF71EFD18B14FF0FF3004B04A
:1053400010BD0298000E8DF800000298000C8DF838
:1053500001000298000A8DF802000298C0B28DF890
:1053600003006A4604214FF47570FFF703FD10B186
:105370004FF0FF30E3E70398000E8DF8000003982C
:10538000000C8DF801000398000A8DF802000398C4
:10539000C0B28DF803006A4604214FF47670FFF71F
:1053A000E9FCCCE770B588B0064601A8FEF7E9FE37
:1053B000BDF804000021C90341EA5045C403614817
:1053C000007A00F0030056F8200005905D48007A4E
:1053D00000F0040010B10598404205905948007A49
:1053E000C0F3C10056F8200006905648007A00F03D
:1053F000200010B10698404206905248007AC0F34F
:10540000811056F8200007904E48008900F4807003
:1054100010B10798404207900598C117A0FB0423DC
:1054200001FB043100FB0510810041EA92700590F8
:105430000698C117A0FB042301FB043100FB0510F3
:10544000810041EA927006900798C117A0FB0423DF
:1054500001FB043100FB0510810041EA92700790C6
:105460000598000E8DF808000598000C8DF80900CD
:105470000598000A8DF80A000598C0B28DF80B0057
:105480000698000E8DF80C000698000C8DF80D00A3
:105490000698000A8DF80E000698C0B28DF80F002D
:1054A0000798000E8DF810000798000C8DF8110079
:1054B0000798000A8DF812000798C0B28DF8130003
:1054C00002AA0C214FF42570FFF754FC08B070BD00
:1054D00030B585B004461DA207CA02AB07C3C82C6D
:1054E00003DD4FF0FF3005B030BDC82090FBF4F075
:1054F000401E85B2280A8DF80000E8B28DF8010040
:105500006A46022140F21620FFF734FC10B14FF03A
:10551000FF30E8E702AA0C2140F6C120FFF72AFC81
:1055200010B14FF0FF30DEE7064884810020DAE753
:10553000F87E00084CCD6C000CC92C003656760065
:10554000264666004802002009E3CA02FEF2ABC408
:10555000AAF1DFDFBBAFDFDF0146FC4880890880AE
:10556000002070472DE9FC4706460F4606F007006D
:1055700010B1B7F5C86F03DD4FF0FF30BDE8FC8711
:10558000384601F0CCF98146F14901F068F88046CF
:105590006846FEF77AFD9DF80000022806D0042830
:1055A00016D0082826D0102848D135E04FF08D417C
:1055B000404601F022F8814601F0CFF984B2E54976
:1055C000404601F01AF8814601F0C7F985B238E08B
:1055D0004FF08C41404601F010F8814601F0BDF9D2
:1055E00084B2DD49404601F008F8814601F0B5F982
:1055F00085B226E04FF08B41404600F0FEFF814629
:1056000001F0ABF984B2D549404600F0F6FF81467F
:1056100001F0A3F985B214E04FF08A41404600F052
:10562000ECFF814601F099F984B2CD49404600F083
:10563000E4FF814601F091F985B202E04FF0FF30BE
:105640009CE700BF20128DF80400E0B28DF8050041
:1056500028128DF80600E8B28DF8070006F0010068
:10566000A0B101AA02214FF4EA70FFF783FB10B149
:105670004FF0FF3082E70DF1060202214FF49270E5
:10568000FFF778FB10B14FF0FF3077E706F002002C
:10569000A0B101AA02214FF4EC70FFF76BFB10B12F
:1056A0004FF0FF306AE70DF1060202214FF49470CB
:1056B000FFF760FB10B14FF0FF305FE706F004002A
:1056C000A0B101AA02214FF4EE70FFF753FB10B115
:1056D0004FF0FF3052E70DF1060202214FF49670B1
:1056E000FFF748FB10B14FF0FF3047E7002045E7D8
:1056F00038B504460020009004F0010020B19DF868
:10570000000040F03000009004F0020020B19DF84D
:10571000000040F00C00009004F0040020B19DF85F
:10572000000040F0030000906A4601214FF4A4708D
:10573000FFF720FB38BD38B50446012C01DA0124FF
:1057400002E0042C00DD0424601EC0B200906A4612
:10575000012140F24F10FFF70DFB38BD38B504466C
:10576000052094FBF0F085B228128DF80000E8B215
:105770008DF801006A4602214FF4EF70FFF7FAFA44
:1057800038BD38B50446052094FBF0F085B22812E8
:105790008DF80000E8B28DF801006A4602214FF44E
:1057A000ED70FFF7E7FA38BDF8B505460E464FF441
:1057B0007A7095FBF0F000FB06F4200E8DF80000E7
:1057C000200C8DF80100200A8DF80200E0B28DF85F
:1057D00003006A4604214FF4AE70FFF7CBFAF8BD20
:1057E00038B50446052094FBF0F084B220128DF801
:1057F0000000E0B28DF801006A4602214FF4AD705E
:10580000FFF7B8FA38BD38B50446052094FBF0F030
:1058100084B220128DF80000E0B28DF801006A46D3
:1058200002214FF4AC70FFF7A5FA38BD38B5044635
:1058300014B94FF0FF3038BD6A4604214FF4587058
:10584000FFF7D5FA10B14FF0FF30F4E79DF80000F4
:1058500000069DF8011040EA01409DF8021040EA60
:1058600001209DF80310084320600020E3E738B5CD
:105870000446200E8DF80000200C8DF80100200A4F
:105880008DF80200E0B28DF803006A4604214FF45F
:105890005870FFF76FFA38BD38B5044614B94FF0A9
:1058A000FF3038BD6A4604214FF47170FFF79FFA4C
:1058B00010B14FF0FF30F4E79DF8000000069DF8AE
:1058C000011040EA01409DF8021040EA01209DF8D5
:1058D0000310084300EB8000800020600020E0E718
:1058E00038B504461420B4FBF0F4200E8DF8000007
:1058F000200C8DF80100200A8DF80200E0B28DF82E
:1059000003006A4604214FF47170FFF733FA38BD83
:1059100038B5044664B120208DF8000028208DF8A9
:10592000010030208DF8020038208DF8030004E0DB
:10593000A3220421684600F0E2FD6A46042140F6F5
:105940009E20FFF717FAFDF77DFE38BD48020020C4
:1059500000004843000040460000C04500004045AC
:105960000000C04438B5044664B1C0208DF8000082
:10597000C2208DF80100C4208DF80200C6208DF8E9
:10598000030004E08B220421684600F0B8FD6A465B
:10599000042140F69820FFF7EDF9FDF753FE38BDDE
:1059A0003EB504466CB1FDA1D1E900208968CDE97E
:1059B000002002916A4609214FF49760FFF7DAF957
:1059C0003EBDF9A2D2E900109268CDE90102009132
:1059D0006A4609214FF49760FFF7CCF9F0E73EB52E
:1059E000044602208DF80000CA208DF80100E32053
:1059F0008DF8020009208DF803006A460421682012
:105A0000FFF7B8F9A3208DF8000004F0400048B17A
:105A1000C0208DF80100C8208DF80200C2208DF84A
:105A2000030006E0A3208DF801008DF802008DF838
:105A3000030004F4C07048B1C4208DF80400CC20E9
:105A40008DF80500C6208DF8060006E0A3208DF82D
:105A500004008DF805008DF80600A3208DF80700DE
:105A60008DF808008DF809006A460A2140F6A72043
:105A7000FFF780F904F0030018B120208DF8000032
:105A800002E0D8208DF800006A46012140F6B620D9
:105A9000FFF770F904F0200018B10120FFF780FF34
:105AA00002E00020FFF77CFF04F4C07008B304F4A8
:105AB000807060B1B2208DF800008B208DF801005D
:105AC000B6208DF802009B208DF803000BE0B0207B
:105AD0008DF8000080208DF80100B4208DF80200C0
